:020000040800F2
:10000000480700204D02000849160008F1140008B6
:100010004516000835050008511A000800000000C8
:100020000000000000000000000000005116000861
:1000300045050008000000004D1600085516000890
:1000400067020008670200086702000867020008EC
:1000500067020008670200086702000867020008DC
:1000600067020008670200086702000867020008CC
:1000700067020008670200086702000867020008BC
:1000800067020008670200086702000867020008AC
:10009000670200086702000867020008670200089C
:1000A000670200086702000867020008670200088C
:1000B000670200086702000867020008670200087C
:1000C000670200086702000867020008670200086C
:1000D000670200086702000867020008670200085C
:1000E000670200086702000867020008670200084C
:1000F000670200086702000867020008670200083C
:10010000670200086702000867020008670200082B
:10011000670200086702000867020008670200081B
:100120006702000867020008390500086702000836
:1001300067020008670200086702000867020008FB
:1001400067020008670200086702000867020008EB
:1001500067020008670200086702000867020008DB
:1001600067020008670200086702000867020008CB
:10017000670200086702000867020008000000002C
:1001800067020008670200086702000867020008AB
:10019000670200086702000867020008670200089B
:1001A00000000000000000006702000800F002F8F4
:1001B00000F03CF80AA090E8000C82448344AAF1C5
:1001C0000107DA4501D100F031F8AFF2090EBAE8C3
:1001D0000F0013F0010F18BFFB1A43F0010318477B
:1001E0006C1900008C190000103A24BF78C878C13F
:1001F000FAD8520724BF30C830C144BF04680C602D
:10020000704700000023002400250026103A28BF74
:1002100078C1FBD8520728BF30C148BF0B60704778
:100220001FB501F076FC1FBD10B510BD00F047F9F9
:100230001146FFF7F5FF01F00DFC00F065F903B47E
:10024000FFF7F2FF03BC00F06DF90000094880479A
:1002500009480047FEE7FEE7FEE7FEE7FEE7FEE7A8
:10026000FEE7FEE7FEE7FEE704480549054A064BC0
:100270007047000059160008AD0100084801002031
:1002800048070020480300204803002053EA020CDE
:1002900000F069802DE9F04B4FF00006002B1FBFE6
:1002A000B3FA83F503FA05F424FA05F65E4012BFAB
:1002B0001643B2FA82F502FA05F4C5F120051EBF15
:1002C00022FA05FC44EA0C04203556EA044C4FEAB5
:1002D000144418BF641C4FF000084FF0000990420E
:1002E00071EB030C39D3002919BFB1FA81F701FA78
:1002F00007F6B0FA80F700FA07F6C7F120071EBF2D
:1003000020FA07FC46EA0C062037B6FBF4FCA7EB04
:100310000507103F07F01F0BCBF120062CFA06F65D
:100320000CFA0BFB44BFB3460026202FA4BF5E4649
:100330004FF0000B5BEA060C08BF4FF0010B19EB06
:100340000B0948EB0608ABFB027C06FB02CC0BFB5F
:1003500003CCC01B71EB0C01C1E70B4602464146C2
:100360004846BDE8F08B13B5084318BF4FF0FF3087
:100370000146AFF30080BDE81C407047032A40F2FD
:10038000308010F0030C00F0158011F8013BBCF137
:10039000020F624498BF11F801CB00F8013B38BF4F
:1003A00011F8013BA2F1040298BF00F801CB38BF5D
:1003B00000F8013B11F0030300F04F80083AC0F051
:1003C000088051F8043B083A51F804CBA0E8081023
:1003D000F5E7121D5CBF51F8043B40F8043BAFF356
:1003E0000080D20724BF11F8013B11F801CB48BFB0
:1003F00011F8012B24BF00F8013B00F801CB48BFE6
:1004000000F8012B70474FF0000200B513469446E8
:100410009646203922BFA0E80C50A0E80C50B1F15C
:100420002001BFF4F7AF090728BFA0E80C5048BF70
:100430000CC05DF804EB890028BF40F8042B08BF0E
:10044000704748BF20F8022B11F0804F18BF00F80A
:10045000012B704770477047704710B5203AC0F0C5
:100460000B80B1E81850A0E81850B1E81850A0E887
:100470001850203ABFF4F5AF5FEA027C24BFB1E820
:100480001850A0E8185044BF18C918C0BDE8104063
:100490005FEA827C24BF51F8043B40F8043B08BF6C
:1004A0007047D20728BF31F8023B48BF11F8012B33
:1004B00028BF20F8023B48BF00F8012B7047754663
:1004C00000F02CF8AE4605006946534620F00700C0
:1004D000854618B020B5FFF7C7FEBDE820404FF0B5
:1004E00000064FF000074FF000084FF0000BAC463D
:1004F000ACE8C009ACE8C009ACE8C009ACE8C00988
:1005000021F007018D46704710B50446AFF3008017
:100510002046BDE81040FFF792BE0000004870473B
:100520001000002001491820ABBEFEE726000200A3
:1005300070470000FEE7000040F29C00C2F200009D
:1005400000F006B87047000072B600BFFEE700007A
:10055000F0B581B004460020009040F20800C2F2DD
:1005600000000268D4E9166048F2B5133768082124
:10057000C1F64E3381403942A2FB03250CD02268DC
:1005800013685B0708D5136823F004031360B16098
:10059000616D41F00101616501218140394208D05E
:1005A00022685269120604D5B160616D41F0020102
:1005B000616504218140394208D02268126892079F
:1005C00004D5B160616D41F0040161651021814085
:1005D000394217D020680268120713D5B16002684B
:1005E0000168520308D4C90508D4016821F0080144
:1005F0000160216C21B905E008033FD4216C09B1E9
:1006000020468847E16D202000FA01F23A4241D0AD
:1006100020680368DB063DD5B26094F83530026887
:10062000052B1BD122F016020260426922F08002E3
:100630004261226C0AB9A26C1AB1026822F0080267
:1006400002603F208840B060012084F83500216DB1
:100650000020002984F8340052D157E00168520389
:1006600010D4C90512D4016821F0100101600120E5
:1006700084F83500002084F8340007E0A16C0029DC
:10068000BED1BFE7080301D4616C00E0E16B09B1A2
:1006900020468847606DC8B3606DC0072ED0052026
:1006A00084F835002068A90A026822F0010202607D
:1006B000009A01328A4200921AD80268D20717D0F3
:1006C000009A01328A42009212D80268D2070FD0F3
:1006D000009A01328A4200920AD80268D20707D0F3
:1006E000009A01328A42009202D80268D207DFD112
:1006F000012084F83500002084F83400E16C29B131
:10070000204601B0BDE8F040084700BF01B0F0BD91
:100710002DE9F041044600F0D7F9ECB1054602207E
:1007200084F835000020216884F83400086820F03F
:100730000100086021680868C00711D000F0C4F902
:10074000401B0528F6D9032520230320636584F880
:100750003550BDE8F08100BF0120BDE8F08100BF49
:10076000086848F23F02CFF21002D4E9013500EAEE
:10077000020C04F10C0898E8C10143EA0C032B4376
:100780001843D4E9072E304338431043626A40EAE5
:100790000E00042A40EA08031CD1206BD4E90A2E7B
:1007A00040EA0E00184308604869BEF1000F20F0CF
:1007B000030040EA020040F0040C11D0B8F5005FDD
:1007C00036D0B8F1000F45D1022A46D0012A3BD0DD
:1007D00032B942E00B60486920F0070040EA020CA1
:1007E00001F0F8004AF6AB221038CAF6AA22A0FBA4
:1007F00002231A0941F64433C0F600039A5C40F222
:10080000FF335F284FF03F00C1F814C021EA030115
:1008100000FA02F088BF0431C4E916128860002390
:1008200001250020636584F83550BDE8F08100BFE4
:10083000032AD5D8012540230120DFE802F0030E6A
:10084000030500BF82E700BFAEF1C070B0FA80F0D0
:10085000400904E0032A04D3C2D1CEF3006000288B
:10086000BED0012540230120636584F83550BDE8E2
:10087000F081000070B590F834C0BCF1010F46D093
:100880004FF0010C80F834C0D0F858E090F835C033
:10089000BCF1010F38D14FF0020C80F835C04FF099
:1008A000000CC0F854C0D0F800C08468056CC06D5E
:1008B000DCF80060402C26F48026CCF80060CCF8F0
:1008C00004300B4604BF13460A463F2101FA00F0EC
:1008D000CCF80830CCF80C20CEF80800DCF800008A
:1008E00040F01600CCF800002DB1DCF8000040F01C
:1008F0000800CCF80000DCF8000040F00100CCF863
:100900000000002070BD00BF002180F834100220DC
:1009100070BD00002DE9F04F82B000F13E4242F27E
:10092000004502F1FF77C4F202050A2243F6004EA9
:100930004FEAB726A84208BF0922C4F2010E092EC9
:1009400038BF4FEAB7220125002600274FF00008E4
:10095000009208E008F101080437B8F1100F06F121
:10096000020600F0A7800C6805FA08F914EA090FDE
:10097000F0D0D1F804B003220BF0030CACF1010469
:10098000B240012C6FEA020A10D88268CC6802EAF1
:100990000A02B440224382604268CBF3001422EA88
:1009A000090204FA08F42243426005E0BCF1030F97
:1009B00002D14FF0030C20E0C2688C6802EA0A0200
:1009C000B4402243BCF1020FC26016D16FF00302A3
:1009D00002EA58020244D2F820C007F01C050F2397
:1009E0000C69AB402CEA030304FA05F52B431362B0
:1009F000D1F804B001250BF0030C02680CFA06F3E1
:100A000002EA0A021A431BF4403F0260A2D000220D
:100A100043F644030192C4F202031A684FF6084CED
:100A200042F480421A601A68CFF6FF7C02F48042DA
:100A30000192019A28F00302724452F80C3007F038
:100A40000C050F24AC40A343009C04FA05F52B438E
:100A500042F80C30DEF808204B6842EA090543F6FC
:100A60000C4CDC0258BF22EA0905CEF80850C4F24B
:100A7000010CDCF800209C0242EA090558BF22EA7A
:100A80000905CCF80050DEF804209C0342EA090571
:100A900058BF22EA0905CEF80450DEF80020DB0337
:100AA00042EA090558BF22EA0905CEF8005001259F
:100AB00050E700BF02B0BDE8F08F0000002A08BF79
:100AC000090481617047000040F24410C2F2000046
:100AD0000068704740F2000040F24411C2F200008A
:100AE000C2F2000100780A681044086070470000F4
:100AF00080B543F60040C4F20200016841F4007181
:100B00000160016841F480610160016841F4807115
:100B10000160032000F088F80F2000F005F800F0D5
:100B200027F8002080BD000070B540F20006C2F238
:100B3000000640F208013278C2F200014FF47A73E5
:100B40000968B3FBF2F20446B1FBF2F1084600F08B
:100B500043FB0F2C4FF0010508D838B94FF0FF3098
:100B600021460022002500F033F87460284670BD4D
:100B700082B0002043F640010190C4F202014A68AD
:100B800042F480424A604A6802F480420192019A2B
:100B90000090086840F080500860086800F08050BD
:100BA0000090009802B07047002848BF7047C1B25B
:100BB00000F01F00012202FA00F04EF20012CEF205
:100BC000000242EAD10121F00301086070470000F1
:100BD00010B54EF60C5CCEF2000CDCF80030C3F31E
:100BE000022E8EF00704042C28BF0424BEF1030358
:100BF0004FF0FF3E0EFA04F438BF0023A1439940A2
:100C00000EFA03F39A43114300F00F0200F1604320
:100C10000901043A03F564436244002848BF02F125
:100C20000C03197010BD00004EF60C51CEF20001FD
:100C30000A684FF6FF031A4060F30A2242F0806010
:100C400040F0FD70086070472DE9F041002800F089
:100C50008B8043F60808C4F202080446D8F8F8036B
:100C60000D4600F00F00884207D288F8F853D8F8F4
:100C7000F80300F00F00A84276D12068810717D54D
:100C8000410705D5D8F8001041F4E051C8F800102C
:100C9000010705D5D8F8001041F46041C8F80010EC
:100CA000D8F80010A26821F0F0011143C8F8001034
:100CB000C0073FD1D8F8F80300F00F00A84207D9C9
:100CC00088F8F853D8F8F80300F00F00A8424BD189
:100CD0002068410707D5D8F80010E26821F4E051F8
:100CE0001143C8F80010000708D5D8F800002169A2
:100CF00020F4604040EAC100C8F8000000F07CF831
:100D0000D8F8001041F62C32C1F30311C0F60002EE
:100D1000515C40F2080220FA01F140F20400C2F2F4
:100D200000000068C2F200021160FFF7FDFE002023
:100D3000BDE8F0816068811E022907D258F8081CBE
:100D400089015CBF0120BDE8F08111E0012807D1D5
:100D500058F8081C89035CBF0120BDE8F08107E05A
:100D600058F8081C890703D40120BDE8F08100BFB2
:100D7000D8F8001021F003010843C8F80000FFF77D
:100D8000A3FE064641F28837D8F80000616800F0FB
:100D90000C00B0EB810F8DD0FFF796FE801BB842A0
:100DA000F2D90320BDE8F08140F2080043F60801C3
:100DB000C2F20000C4F202010068096841F63C3248
:100DC000C1F38221C0F60002515CC84070470000A8
:100DD00040F2080043F60801C2F20000C4F202012A
:100DE0000068096841F63C32C1F34231C0F60002A6
:100DF000515CC8407047000010B543F60404C4F2CB
:100E00000204606800F00C0008280BD0042819BF09
:100E100042F20040C0F2F40047F64000C0F27D10FC
:100E200010BD00BF206821682368490247F64001D1
:100E3000C0F27D1100F03F02C3F388105CBF42F2A4
:100E40000041C0F2F401A1FB00010023FFF71EFAEC
:100E500021680222C1F3014102EB4101B0FBF1F034
:100E600010BD00002DE9F04182B0002868D0044692
:100E7000007843F60006C007C4F202060BD0B06843
:100E800000F00C00042840F09F803068800302D5F9
:100E90006068002854D0207880071AD5B06810F018
:100EA0000C0F09D0B06800F00C00082840F0A680B4
:100EB0007068400200F1A2803068800702D5E068C7
:100EC00001283DD13068216920F0F80040EAC100D6
:100ED00030602078000737D4207840074CD4A569CB
:100EE00055B3B06800F00C00082840F0BB80012D1D
:100EF00026D07068E16900F480028A4220D1216A1C
:100F000000F03F028A421BD147F6C071626A01407D
:100F1000B1EB821F14D1A16A4FF6FF73C903994345
:100F200000F44032A1F580318A4209D1E16A00F033
:100F30007060B0EB016F03D1002002B0BDE8F0811A
:100F4000012002B0BDE8F0816069002840F2000095
:100F5000C4F2472076D00121C0F8801EFFF7B4FD0F
:100F6000054600BF706F8007B6D4FFF7ADFD401B8C
:100F70000228F7D9DDE000BF306C10F080580AD1AC
:100F800000200190306C40F080503064306C00F0F4
:100F900080500190019847F20007C4F200073868BA
:100FA000C00541D4386840F480703860FFF78CFD8C
:100FB000054600BF3868C00536D4FFF785FD401BE5
:100FC0000228F7D9B5E000BFB06800F00C0008288F
:100FD00003D1706840023FF558AF6068B0F5803FBC
:100FE00007D0B0F5A02F40F08D80306840F480200D
:100FF0003060306840F4803030608DE0E068002878
:1010000052D00020C4F2472001210160FFF75CFDAF
:10101000054600BF306880073FF554AFFFF754FD29
:10102000401B0228F6D984E0A068012805D00528D5
:101030004ED1306F40F004003067306F40F0010057
:1010400030674FE00021C0F8801EFFF73DFD0546E8
:10105000706F80077FF540AFFFF736FD401B022819
:10106000F6D966E00027C4F2472700203866FFF76C
:101070002BFD022D05460BD1306880015ED5FFF7B0
:1010800023FD401B02284FF00300F5D955E700BFB0
:10109000306880017FF550AFFFF716FD401B022836
:1010A0004FF00300F4D948E70020C4F247200021A4
:1010B0000160FFF709FD0546306880077FF509AF3D
:1010C000FFF702FD401B02284FF00300F4D934E77C
:1010D000316F002821F001013167316F21F00401E7
:1010E00031674DD0FFF7F0FC054641F2883700BF6D
:1010F000306F800756D4FFF7E7FC401BB842F7D9A2
:1011000017E000BF3168002821F480313160316878
:1011100021F4802131604FD0FFF7D6FC054600BF97
:10112000306880033FF5B7AEFFF7CEFC401B642864
:10113000F6D9032002B0BDE8F08100BF04F11C0520
:101140002FCD084340EA8210D9034FF6FF72914336
:10115000A1F5803140EA05600843706001203866DF
:10116000FFF7B2FC044600BF306880013FF5E4AEF3
:10117000FFF7AAFC001B02284FF00300F4D9DCE6BD
:10118000FFF7A2FC054641F2883700BF306F8007A9
:1011900008D5FFF799FC401BB8424FF00300F5D982
:1011A000CBE600BFB8F1000F7FF499AE306C20F0B1
:1011B0008050306493E600BFFFF786FC054600BF11
:1011C000306880037FF567AEFFF77EFC401B642824
:1011D0004FF00300F4D9B0E6411E0020B0EB116FD0
:1011E0001CBF012070474EF21002CEF20002516087
:1011F0004EF62351CEF20001F0230B7007219060D0
:10120000116070477047000070470000002804BF5D
:101210000120704710B5044690F8410028B900201D
:1012200084F84000204600F021F8242084F8410092
:101230002068C16821F40051C160204600F090FB95
:101240002068016921F490410161416921F02A017E
:101250004161C16841F40051C160002020216064F7
:1012600084F8411084F84210606310BD70B586B0F8
:101270000446016841F20000C4F20100814201D03D
:1012800006B070BD002643F630010196C4F202019B
:101290004A6900F5744042F010024A614A6902F05E
:1012A00010020192019A01960A6842F002020A6055
:1012B000096801F0020101910199C0210191022107
:1012C000CDE90216032104910721059101A9FFF739
:1012D00021FB40F29C0546F24040C2F20005C4F2F8
:1012E00002004FF000614FF4806285E84300284619
:1012F000C5E90362C5E90566C5E907666E62FFF7E1
:1013000007FA002818BFFFF71FF9E563AC6306B0C2
:1013100070BD000070B582B0044690F842002028ED
:101320000AD113460A4600294FF0010018BF002BCE
:1013300006D102B070BD00BF022002B070BD00BF78
:10134000002622202663A262A385666484F84200F8
:101350002168E06B41F2E97C41F6491E41F26D657E
:10136000C0F6000CC0F6000EC0F600050431C0E95E
:101370000FCEC0E91356FFF77DFA01962068016889
:101380000191406801900198206928B3206850E8D5
:10139000030F216840F4807041E80302E2B1206845
:1013A00050E8030F216840F4807041E803029AB1CD
:1013B000206850E8030F216840F4807041E8030280
:1013C00052B1206850E8030F216840F4807041E872
:1013D0000302002ADAD100BF206850E8050F216817
:1013E00040F0010041E80502E2B1206850E8050F35
:1013F000216840F0010041E805029AB1206850E8F8
:10140000050F216840F0010041E8050252B1206853
:1014100050E8050F216840F0010041E80502002A6C
:10142000DAD100BF206850E8050F216840F0400085
:1014300041E80502DAB1206850E8050F216840F064
:10144000400041E8050292B1206850E8050F21688C
:1014500040F0400041E805024AB1206850E8050F1D
:10146000216840F0400041E80502002ADAD100205E
:1014700002B070BDB0B541F20040C4F202004FF4BA
:1014800080410022FFF71AFB40F27005C2F200050E
:1014900005F11A0405F1080021461222FEF76EFF3D
:1014A000687A297A00F0070041EA0020A0F5B671B9
:1014B00000EE101AB8EEC00A9FED0B1A30EE000ACB
:1014C00080EE010ABFEE001A686040F2FC00C2F232
:1014D00000002146122230EE010A85ED000ABDE827
:1014E000B040FFF717BF00BF0000A54470470000E1
:1014F000FEE7000080B582B00020019043F6300086
:10150000C4F202000168002241F480010160006819
:10151000002100F48000019001983A20FFF758FB69
:101520003A2002B0BDE88040FFF73EBB2DE9F04312
:1015300087B0002743F6300006970197C4F20200F7
:10154000016841F2000441F0010101600168C4F248
:10155000020401F001010191019901970168002243
:1015600041F00201016001684FF4006601F00201E0
:10157000019101990197016841F0800101600168C2
:1015800001F08001019101990197016841F010017A
:101590000160016801F01001019101990197016852
:1015A00041F02001016000684FF4006100F020006C
:1015B000019001982046FFF781FA04F580652846DE
:1015C0004FF4804100224FF48048FFF777FA0296EB
:1015D00002AE4FF0010920463146CDE90397059749
:1015E000FFF798F928463146CDE90289CDE904771D
:1015F000FFF790F907B0BDE8F083000080B540F236
:10160000FC0041F20001C2F20000C4F2010148F204
:10161000A062C0F20102002380E80E0000F10C017C
:101620004FF4806C4FF00C0E81E80850C0E906338F
:10163000FFF7ECFD002808BF80BDBDE88040FEF745
:1016400083BF0000FEE70000FEE7000070470000D7
:1016500070470000FFF73EBA4EF68850CEF2000009
:10166000016841F47001016070470000806B0168FF
:101670004A6990F84130212B2DD112F080022AD0F6
:101680000021C184016851E8031F026821F0C001F4
:1016900042E80313DBB1016851E8031F026821F03F
:1016A000C00142E8031393B1016851E8031F0268C7
:1016B00021F0C00142E803134BB1016851E8031F58
:1016C000026821F0C00142E80313002BDAD1202187
:1016D00080F841100168496990F84220222A40F0C0
:1016E0007D8011F0400179D00021C185016851E869
:1016F000031F026821F4907142E80313BBB3016831
:1017000051E8031F026821F4907142E8031373B398
:10171000016851E8031F026821F4907142E8031345
:101720002BB3016851E8031F026821F4907142E86D
:101730000313002BDAD11AE0016851E8051F026893
:1017400021F0010142E80513DBB1016851E8051FF2
:10175000026821F0010142E8051393B1016851E8E4
:10176000051F026821F0010142E805134BB1016831
:1017700051E8051F026821F0010142E80513002B22
:10178000DAD1016B012924D1016851E8031F0268F5
:1017900021F0100142E80313DBB1016851E8031F97
:1017A000026821F0100142E8031393B1016851E887
:1017B000031F026821F0100142E803134BB10168D6
:1017C00051E8031F026821F0100142E80313002BC7
:1017D000DAD1202180F8421000210163416C41F0F0
:1017E00010014164FFF710BD0168806B0968C905ED
:1017F00000F19F800021C185016851E8031F026844
:1018000021F4807142E80313E3B1016851E8031F3A
:10181000026821F4807142E803139BB1016851E82A
:10182000031F026821F4807142E8031353B1016879
:1018300051E8031F026821F4807142E80313002B72
:10184000DAD100BF016851E8051F026821F00101EB
:1018500042E80513BBB3016851E8051F026821F097
:10186000010142E8051373B3016851E8051F0268DE
:1018700021F0010142E805132BB3016851E8051F6F
:10188000026821F0010142E80513002BDAD11AE0C9
:10189000016851E8051F026821F0400142E8051384
:1018A000DBB1016851E8051F026821F0400142E800
:1018B000051393B1016851E8051F026821F040014A
:1018C00042E805134BB1016851E8051F026821F099
:1018D000400142E80513002BDAD1202180F84210A4
:1018E000016B012925D100BF016851E8031F02687F
:1018F00021F0100142E80313DBB1016851E8031F36
:10190000026821F0100142E8031393B1016851E825
:10191000031F026821F0100142E803134BB1016874
:1019200051E8031F026821F0100142E80313002B65
:10193000DAD100214163016B012918BFFFF79ABD7D
:10194000818DFFF75FBC0000806B01214163016B5B
:10195000012918BFFFF7CABD818D4908FFF752BCA6
:1019600010B504460068D4E902C22369016921F474
:10197000405111430161626943EA0C01E36911437B
:10198000C268194349F20C639A431143C16041692B
:10199000A26921F4407141F20043114340F4806296
:1019A000C4F201039A42416102D1FFF711FA01E04A
:1019B000FFF7FAF9E16963681922B1F5004FA0FB5E
:1019C000020123D15A00DB0FFEF760FC48F21F51E1
:1019D000C5F2EB11A0FB01235A094FF69C73C0F628
:1019E000FF7303F1805302FB0300322303EBC000BB
:1019F000A0FB01014FF4F87000EA111000EB021097
:101A0000C1F3421108442168886010BD9A009B0F01
:101A1000FEF73CFC48F21F51C5F2EB11A0FB01237D
:101A20005A094FF69C73C0F6FF7302FB0300322382
:101A300003EB0010A0FB0101F02000EA511000EBC5
:101A40000210C1F3431108442168886010BD0000F2
:101A5000FEE7000092B047F20005C4F20005FFF770
:101A600047F806AC201D2C21FEF7CDFC002643F6DE
:101A700040000596CDE90366CDE901660096C4F203
:101A80000200016841F0805101600068012100F00E
:101A90008050009000980096286861F38F3028608D
:101AA000286800F440400090009802200690102022
:101AB0000A90204609910C96FFF7D4F910B172B63E
:101AC000FEE700BF0F20CDE9010601A80021CDE906
:101AD00003660596FFF7B8F810B172B6FEE700BFCF
:101AE000FFF724FDFFF706FDFFF788FD40F2FC003D
:101AF00040F28A01C2F20000C2F200011222FFF796
:101B000009FC05F5D2304FF480410122FEF7D6FFE3
:101B1000FEE7F1EE100A4FF6FF71C0F2C03120EA85
:101B2000010040F04070E1EE100A70470000000034
:101B3000000000000102030406070809000000007D
:101B4000010203040006101600061016701B0008A0
:101B50000000002010000000E8010008801B0008C1
:101B600010000020380700000402000800000000F8
:101B700001000000100000000024F400000000003C
:04000005080001AD41
:00000001FF
